:020000040800F2
:1000000000000220A5170008AD150008AF15000874
:10001000B1150008B3150008B51500080000000070
:10002000000000000000000000000000B7150008FC
:10003000B915000800000000BB150008BD15000838
:10004000F5170008F5170008F5170008F517000860
:10005000F5170008F5170008F5170008F517000850
:10006000F5170008F5170008F5170008F517000840
:10007000F5170008F5170008F5170008F517000830
:10008000F5170008F5170008F5170008F517000820
:10009000F5170008F5170008F5170008C515000842
:1000A000F5170008F5170008F5170008F517000800
:1000B000F5170008F5170008F5170008F5170008F0
:1000C000F5170008F5170008F5170008F5170008E0
:1000D000F5170008F5170008F5170008F5170008D0
:1000E000F5170008F5170008F5170008F5170008C0
:1000F000F5170008F5170008F5170008F5170008B0
:10010000F5170008F5170008F5170008F51700089F
:10011000F5170008F5170008F5170008F51700088F
:10012000F5170008F5170008F5170008F51700087F
:10013000F5170008F5170008F5170008F51700086F
:10014000F5170008F5170008F5170008F51700085F
:10015000F5170008F5170008F5170008F51700084F
:10016000F5170008F5170008F5170008F51700083F
:10017000F5170008F5170008F51700080000000043
:08018000F5170008F51700084F
:1001880010B5054C237833B9044B13B10448AFF3C9
:1001980000800123237010BDB80900200000000072
:1001A800588D000808B5034B1BB103490348AFF34A
:1001B800008008BD00000000BC090020588D000820
:1001C8004FF0FF0C1CEAD0521EBF1CEAD15392EA32
:1001D8000C0F93EA0C0F6FD01A4480EA010C40020E
:1001E80018BF5FEA41211ED04FF0006343EA501068
:1001F80043EA5111A0FB01310CF00040B1F5000FAA
:100208003EBF490041EAD3715B0040EA010062F158
:100218007F02FD2A1DD8B3F1004F40EBC25008BF42
:1002280020F00100704790F0000F0CF0004C08BF60
:1002380049024CEA502040EA51207F3AC2BFD2F12D
:10024800FF0340EAC250704740F400004FF000033B
:10025800013A5DDC12F1190FDCBF00F00040704775
:10026800C2F10002410021FA02F1C2F1200200FAB3
:1002780002FC5FEA310040F1000053EA4C0308BF7A
:1002880020EADC70704792F0000F00F0004C02BFCB
:10029800400010F4000F013AF9D040EA0C0093F046
:1002A800000F01F0004C02BF490011F4000F013BA0
:1002B800F9D041EA0C018FE70CEAD15392EA0C0F0E
:1002C80018BF93EA0C0F0AD030F0004C18BF31F079
:1002D800004CD8D180EA010000F00040704790F04F
:1002E800000F17BF90F0004F084691F0000F91F0F3
:1002F800004F14D092EA0C0F01D142020FD193EAB9
:100308000C0F03D14B0218BF084608D180EA010040
:1003180000F0004040F0FE4040F40000704740F01C
:10032800FE4040F44000704781F0004102E000BF09
:1003380083F0004330B54FEA41044FEA430594EA9D
:10034800050F08BF90EA020F1FBF54EA000C55EAD8
:10035800020C7FEA645C7FEA655C00F0E2804FEAA9
:100368005454D4EB5555B8BF6D420CDD2C4480EA8B
:10037800020281EA030382EA000083EA010180EABB
:10038800020281EA0303362D88BF30BD11F0004F09
:100398004FEA01314FF4801C4CEA113102D040423F
:1003A80061EB410113F0004F4FEA03334CEA13337A
:1003B80002D0524263EB430394EA050F00F0A78092
:1003C800A4F10104D5F1200E0DDB02FA0EFC22FA8D
:1003D80005F2801841F1000103FA0EF2801843FA81
:1003E80005F359410EE0A5F120050EF1200E012A72
:1003F80003FA0EFC28BF4CF0020C43FA05F3C018B0
:1004080051EBE37101F0004507D54FF0000EDCF128
:10041800000C7EEB00006EEB0101B1F5801F1BD3D1
:10042800B1F5001F0CD349085FEA30004FEA3C0CD5
:1004380004F101044FEA445212F5800F80F09A80CB
:10044800BCF1004F08BF5FEA500C50F1000041EBCF
:10045800045141EA050130BD5FEA4C0C404141EBD3
:100468000101013C28BFB1F5801FE9D291F0000FCE
:1004780004BF01460020B1FA81F308BF2033A3F17D
:100488000B03B3F120020CDA0C3208DD02F1140C74
:10049800C2F10C0201FA0CF021FA02F10CE002F1AF
:1004A8001402D8BFC2F1200C01FA02F120FA0CFCA8
:1004B800DCBF41EA0C019040E41AA2BF01EB0451F1
:1004C800294330BD6FEA04041F3C1CDA0C340EDCEF
:1004D80004F11404C4F1200220FA04F001FA02F332
:1004E80040EA030021FA04F345EA030130BDC4F1F0
:1004F8000C04C4F1200220FA02F001FA04F340EAE5
:100508000300294630BD21FA04F0294630BD94F095
:10051800000F83F4801306BF81F480110134013D7C
:100528004EE77FEA645C18BF7FEA655C29D094EAED
:10053800050F08BF90EA020F05D054EA000C04BF6B
:100548001946104630BD91EA030F1EBF0021002056
:1005580030BD5FEA545C05D14000494128BF41F0F5
:10056800004130BD14F580043CBF01F5801130BD59
:1005780001F0004545F0FE4141F470014FF00000E4
:1005880030BD7FEA645C1ABF194610467FEA655C95
:100598001CBF0B46024650EA013406BF52EA033537
:1005A80091EA030F41F4002130BD00BF90F0000F25
:1005B80004BF0021704730B54FF4806404F1320461
:1005C8004FF000054FF0000150E700BF90F0000F1A
:1005D80004BF0021704730B54FF4806404F1320441
:1005E80010F0004548BF40424FF000013EE700BF11
:1005F80042004FEAE2014FEA31014FEA02701FBFA1
:1006080012F07F4393F07F4F81F06051704732F0D2
:100618007F4208BF704793F07F4F04BF41F4002129
:10062800704730B54FF4607401F0004521F0004187
:100638001CE700BF50EA010208BF704730B54FF011
:1006480000050AE050EA010208BF704730B511F012
:10065800004502D5404261EB41014FF4806404F14A
:1006680032045FEA915C3FF4D8AE4FF003025FEAD0
:10067800DC0C18BF03325FEADC0C18BF033202EB54
:10068800DC02C2F1200300FA03FC20FA02F001FAAE
:1006980003FE40EA0E0021FA02F11444BDE600BF51
:1006A80070B54FF0FF0C4CF4E06C1CEA11541DBF00
:1006B8001CEA135594EA0C0F95EA0C0F00F0DEF8CB
:1006C8002C4481EA030621EA4C5123EA4C5350EAB0
:1006D800013518BF52EA033541F4801143F4801301
:1006E80038D0A0FB02CE4FF00005E1FB02E506F092
:1006F8000042E0FB03E54FF00006E1FB03569CF0E7
:10070800000F18BF4EF0010EA4F1FF04B6F5007FEC
:1007180064F5407404D25FEA4E0E6D4146EB06065E
:1007280042EAC62141EA55514FEAC52040EA5E50E7
:100738004FEACE2EB4F1FD0C88BFBCF5E06F1ED891
:10074800BEF1004F08BF5FEA500E50F1000041EBC8
:10075800045170BD06F0004646EA010140EA020075
:1007680081EA0301B4EB5C04C2BFD4EB0C0541EA97
:10077800045170BD41F480114FF0000E013C00F3AC
:10078800AB8014F1360FDEBF002001F0004170BDD0
:10079800C4F10004203C35DA0C341BDC04F11404E9
:1007A800C4F1200500FA05F320FA04F001FA05F275
:1007B80040EA020001F0004221F0004110EBD37042
:1007C80021FA04F642EB06015EEA430E08BF20EA6E
:1007D800D37070BDC4F10C04C4F1200500FA04F311
:1007E80020FA05F001FA04F240EA020001F00041A3
:1007F80010EBD37041F100015EEA430E08BF20EA16
:10080800D37070BDC4F1200500FA05F24EEA020E5D
:1008180020FA04F301FA05F243EA020321FA04F08C
:1008280001F0004121FA04F220EA020000EBD37043
:100838005EEA430E08BF20EAD37070BD94F0000F43
:100848000FD101F00046400041EB010111F4801F77
:1008580008BF013CF7D041EA060195F0000F18BF28
:10086800704703F00046520043EB030313F4801F64
:1008780008BF013DF7D043EA0603704794EA0C0F1E
:100888000CEA135518BF95EA0C0F0CD050EA410634
:1008980018BF52EA4306D1D181EA030101F00041B1
:1008A8004FF0000070BD50EA410606BF10461946D9
:1008B80052EA430619D094EA0C0F02D150EA0136E5
:1008C80013D195EA0C0F05D152EA03361CBF104626
:1008D80019460AD181EA030101F0004141F0FE41C5
:1008E80041F470014FF0000070BD41F0FE4141F449
:1008F800780170BD70B54FF0FF0C4CF4E06C1CEA49
:1009080011541DBF1CEA135594EA0C0F95EA0C0FFD
:1009180000F0A7F8A4EB050481EA030E52EA0335B8
:100928004FEA013100F088804FEA03334FF08055D9
:1009380045EA131343EA12634FEA022245EA111506
:1009480045EA10654FEA00260EF000419D4208BFB7
:10095800964244F1FD0404F5407402D25B084FEA64
:100968003202B61A65EB03055B084FEA32024FF410
:1009780080104FF4002CB6EB020E75EB030E22BF6D
:10098800B61A754640EA0C005B084FEA3202B6EB2D
:10099800020E75EB030E22BFB61A754640EA5C00DC
:1009A8005B084FEA3202B6EB020E75EB030E22BF6C
:1009B800B61A754640EA9C005B084FEA3202B6EB6D
:1009C800020E75EB030E22BFB61A754640EADC002C
:1009D80055EA060E18D04FEA051545EA16754FEA8E
:1009E80006164FEAC30343EA52734FEAC2025FEAAC
:1009F8001C1CC0D111F4801F0BD141EA00014FF03B
:100A080000004FF0004CB6E711F4801F04BF01430B
:100A18000020B4F1FD0C88BFBCF5E06F3FF6AFAE27
:100A2800B5EB030C04BFB6EB020C5FEA500C50F1B7
:100A3800000041EB045170BD0EF0004E4EEA11313A
:100A480014EB5C04C2BFD4EB0C0541EA045170BD41
:100A580041F480114FF0000E013C90E645EA060E85
:100A68008DE60CEA135594EA0C0F08BF95EA0C0FB3
:100A78003FF43BAF94EA0C0F0AD150EA01347FF4FB
:100A880034AF95EA0C0F7FF425AF104619462CE7D2
:100A980095EA0C0F06D152EA03353FF4FDAE104635
:100AA800194622E750EA410618BF52EA43067FF486
:100AB800C5AE50EA41047FF40DAF52EA43057FF416
:100AC800EBAE12E74FF0FF3C06E000BF4FF0010C21
:100AD80002E000BF4FF0010C4DF804CD4FEA410C85
:100AE8007FEA6C5C4FEA430C18BF7FEA6C5C1BD052
:100AF80001B050EA410C0CBF52EA430C91EA030FD3
:100B080002BF90EA020F0020704710F1000F91EA2F
:100B1800030F58BF994208BF90422CBFD8176FEAFD
:100B2800E37040F0010070474FEA410C7FEA6C5CCB
:100B380002D150EA013C07D14FEA430C7FEA6C5CD2
:100B4800D6D152EA033CD3D05DF8040B704700BFFE
:100B58008446104662468C461946634600E000BF4C
:100B680001B5FFF7B7FF002848BF10F1000F01BD1E
:100B78004DF808EDFFF7F4FF0CBF012000205DF8E9
:100B880008FB00BF4DF808EDFFF7EAFF34BF01206E
:100B980000205DF808FB00BF4DF808EDFFF7E0FF07
:100BA80094BF012000205DF808FB00BF4DF808ED58
:100BB800FFF7CEFF94BF012000205DF808FB00BFBF
:100BC8004DF808EDFFF7C4FF34BF012000205DF8A1
:100BD80008FB00BF4A0011D212F5001211D20DD540
:100BE8006FF47873B3EB62520ED44FEAC12343F02B
:100BF800004343EA505323FA02F070474FF00000D5
:100C0800704750EA013002D14FF0FF3070474FF083
:100C1800000070474FEA4102B2F1E04324BFB3F548
:100C2800001CDCF1FE5C0DD901F0004C4FEAC0025B
:100C38004CEA5070B2F1004F40EB830008BF20F03F
:100C48000100704711F0804F21D113F13872BCBFF9
:100C580001F00040704741F480114FEA5252C2F14E
:100C68001802C2F1200C10FA0CF320FA02F018BF97
:100C780040F001004FEAC1234FEAD32303FA0CFCEA
:100C880040EA0C0023FA02F34FEA4303CCE77FEA79
:100C9800625307D150EA01331EBF4FF0FE4040F4C3
:100CA8004000704701F0004040F0FE4040F4000072
:100CB800704700BF4FEA4002B2F1FE4F0FD34FF02A
:100CC8009E03B3EB12620DD94FEA002343F00043B1
:100CD80010F0004F23FA02F018BF404270474FF05F
:100CE8000000704712F1610F01D1420205D110F0E6
:100CF800004008BF6FF0004070474FF00000704799
:100D080053B94AB9002908BF00281CBF4FF0FF316A
:100D18004FF0FF3000F076B9ADF1080C6DE904CE64
:100D280000F006F8DDF804E0DDE9022304B07047BE
:100D38002DE9F047089E0D4604468846002B4DD104
:100D48008A42944668D9B2FA82F252B101FA02F3A1
:100D5800C2F1200120FA01F10CFA02FC41EA030871
:100D680094404FEA1C41B8FBF1F71FFA8CFE01FBD7
:100D7800178807FB0EF0230C43EA084398420AD968
:100D88001CEB030307F1FF3580F01E81984240F207
:100D98001B81023F63441B1AB3FBF1F001FB1033C4
:100DA80000FB0EFEA4B244EA0344A6450AD91CEB94
:100DB800040400F1FF3380F00981A64540F2068162
:100DC800644402380021A4EB0E0440EA07401EB137
:100DD8000023D440C6E90043BDE8F0878B4208D918
:100DE800002E00F0EE800021C6E900050846BDE8A7
:100DF800F087B3FA83F100294AD1AB4202D3824289
:100E080000F2FC80841A65EB030301209846002E4B
:100E1800E2D0C6E90048DFE702B9FFDEB2FA82F2A3
:100E2800002A40F09180A1EB0C0001214FEA1C47F9
:100E38001FFA8CFEB0FBF7F307FB1300250C45EAFD
:100E480000450EFB03F0A84208D91CEB050503F189
:100E5800FF3802D2A84200F2CE8043462D1AB5FBD5
:100E6800F7F007FB10550EFB00FEA4B244EA054458
:100E7800A64508D91CEB040400F1FF3502D2A645AB
:100E880000F2B6802846A4EB0E0440EA03409EE731
:100E9800C1F120078B4022FA07FC4CEA030C25FA23
:100EA80007FA4FEA1C49BAFBF9F820FA07F309FBDD
:100EB80018AA8D401FFA8CFE1D4300FA01F308FBA7
:100EC8000EF02C0C44EA0A44A04202FA01F20BD9B3
:100ED8001CEB040408F1FF3A80F08880A04240F23D
:100EE8008580A8F102086444241AB4FBF9F009FBD0
:100EF800104400FB0EFEADB245EA0444A64508D9ED
:100F08001CEB040400F1FF356CD2A6456AD90238FF
:100F1800644440EA0840A0FB0295A4EB0E04AC42EE
:100F2800C846AE4656D353D0002E69D0B3EB08025C
:100F380064EB0E0422FA01F304FA07F71F43CC40CE
:100F4800C6E90074002147E70CFA02FCC2F120014F
:100F580025FA01F34FEA1C4720FA01F195400D43A9
:100F6800B3FBF7F107FB11331FFA8CFE280C40EA9C
:100F7800034001FB0EF3834204FA02F408D91CEB88
:100F8800000001F1FF382FD283422DD90239604485
:100F9800C01AB0FBF7F307FB1300ADB245EA0045F2
:100FA80003FB0EF0A84208D91CEB050503F1FF3836
:100FB80016D2A84214D9023B6544281A43EA0141D3
:100FC80038E73146304607E72F46E4E61846F9E6A3
:100FD8004B45A9D2B9EB020865EB0C0E0138A3E723
:100FE8004346EAE7284694E74146D1E7D0467BE7FF
:100FF8006444023847E7023B65442FE7084606E7A2
:101008003146E9E6704700BF844641EA000313F021
:10101800030349D1403A23D30B6803604B6843600C
:101028008B688360CB68C3600B6903614B6943615C
:101038008B698361CB69C3610B6A03624B6A436244
:101048008B6A8362CB6AC3620B6B03634B6B43632C
:101058008B6B8363CB6BC36340304031403ADBD248
:1010680030320BD30B6803604B6843608B68836036
:10107800CB68C36010301031103AF3D20C3205D36C
:1010880051F8043B40F8043B043AF9D2043208D042
:10109800D2071CBF11F8013B00F8013B01D30B88B4
:1010A80003806046704700BF082A13D38B07B1D06E
:1010B80010F00303AED0C3F10403D21ADB071CBF40
:1010C80011F8013B00F8013BA4D331F8023B20F8AA
:1010D800023B9FE7043AD9D3013A11F8013B00F8E3
:1010E800013BF9D20B7803704B7843708B7883708F
:1010F800604670474FEA410C7FEA6C5C02D150EAC7
:10110800013C0AD14FEA430C7FEA6C5C02D152EAF7
:10111800033C02D14FF0000070474FF001007047C8
:101128004FEA410212F5001215D211D56FF4787307
:10113800B3EB625212D94FEAC12343F0004343EAAA
:10114800505311F0004F23FA02F018BF4042704785
:101158004FF00000704750EA013005D111F000400F
:1011680008BF6FF0004070474FF00000704700BFA5
:1011780000B585B0002300930193029303931548AB
:10118800154A02604FF4803242608360036103763F
:1011980080F82030C362114A8262C3600122C261B2
:1011A80080F83030426100F023FC68B905230093D1
:1011B80001230193022302936946064800F046FD85
:1011C80028B905B05DF804FB00F0F4F8EEE700F08C
:1011D800F1F8F6E7D4090020002001400100000FD3
:1011E80000B589B0002303930493059306930793EE
:1011F800026803F1804303F590339A4202D009B0A4
:101208005DF804FB0021019103F58C335A6C42F41C
:1012180080725A645A6C02F480720192019A0291A7
:101228001A6B42F001021A631B6B03F0010302936D
:10123800029B202303930323049303A9014800F08E
:10124800CFFEDCE70000024000B583B00023009326
:1012580001930C480C4B036000F030FE58B93C2356
:101268000093002201926946064800F088FE28B9DA
:1012780003B05DF804FB00F09DF8F0E700F09AF881
:10128800F6E700BF1C0A00200074004000B589B0D2
:101298000023039304930593069307930268134B63
:1012A8009A4202D009B05DF804FB0021019103F5D0
:1012B800E2331A6C42F000521A641A6C02F00052BF
:1012C8000192019A02911A6B42F001021A631B6B98
:1012D80003F001030293029B102303930323049357
:1012E80003A9034800F07CFEDCE700BF007400405F
:1012F8000000024070B58AB0002405940694079453
:10130800089409940194284B1A6B42F020021A633E
:101318001A6B02F020020192019A02941A6B42F0B1
:1013280080021A631A6B02F080020292029A0394F6
:101338001A6B42F001021A631A6B02F0010203925F
:10134800039A04941A6B42F002021A631B6B03F0AF
:1013580002030493049B154E01224FF4C0613046EA
:1013680000F030FF4FF4C0630593012506950795FB
:101378000223089305A9304600F032FE4FF440736B
:1013880005934FF404130693079505A9084800F040
:1013980027FE22462146172000F036FD172000F0D0
:1013A8006BFD0AB070BD00BF003802400014024057
:1013B8000004024072B6FEE700B595B03022002165
:1013C80008A801F075FC0023039304930593069382
:1013D80007930193204A116C41F080511164126CFB
:1013E80002F080520192019A02931C4B1A6842F44F
:1013F80080421A601B6803F480430293029B012316
:1014080008934FF48033099302220E924FF480031D
:101418000F9304231093A82111911292139308A8F3
:1014280000F0E6FE98B90F230393022304930023E8
:1014380005934FF4A05306934FF480530793052167
:1014480003A801F03BF920B915B05DF804FBFFF7DC
:10145800B1FFFFF7AFFF00BF003802400070004047
:1014680038B500F0EBF9FFF7A7FFFFF743FF00F0EF
:101478000FF9FFF77DFEFFF7E7FE334801F0CCFCDC
:10148800324C26E0284600F0DDFB40F6E44100FB44
:1014980001F1090B2E4801F05DFC2E492046FEF7AC
:1014A8008FFEFFF707FC01462B4801F053FC2B4841
:1014B80001F050FC2FE020A3D3E900232046294661
:1014C800FEF738FFFFF7A6FB044640F2E73000F0CE
:1014D800E1F923492046FEF773FEFFF789F818A3C0
:1014E800D3E90023FFF706FAFFF774FB03461D4D07
:1014F80000221146284600F029FD0021284600F068
:10150800EFFC194D284600F09FFAC821284600F044
:101518003DFB0028B6D02046FFF76AF804460D4682
:1015280007A3D3E90023FFF741FB0028C3D0002419
:10153800CBE700BFAFF300809A9999999999B93F81
:101548006666666666660A40708D0008CDCC0C40FB
:10155800808D000800007A44908D0008A08D000856
:1015680000F07F451C0A0020D409002082B0002129
:1015780000910B4B5A6C42F480425A645A6C02F444
:1015880080420092009A01911A6C42F080521A64CB
:101598001B6C03F080530193019B02B0704700BF9E
:1015A80000380240FEE7FEE7FEE7FEE7FEE7704789
:1015B8007047704708B500F05BF908BD08B54FF4EF
:1015C800807000F007FE4FF4007000F003FE08BDC5
:1015D8000120704708B501F041FB162303604FF066
:1015E800FF3008BD08B54FF0FF31FFF7F3FFFEE706
:1015F80070B50C461646002506E000F0ADF8214609
:1016080001F8010B01350C46B542F6DB304670BDDA
:1016180070B50C461646002504E014F8010B00F0DE
:101628008BF80135B542F8DB304670BD4FF0FF301E
:1016380070474FF400534B600020704701207047FB
:101648000020704710B503460C4A0D490D48006844
:1016580040B10C4800680344521A934206D8094A1C
:10166800136010BD0748084C0460F2E701F0F6FA71
:101678000C2303604FF0FF30F3E700BF00000220A7
:1016880000040000300A0020C80A0020704700004B
:1016980008B50A480A4B03604FF4E133436000235E
:1016A8008360C36003610C2242618361C36101F0FE
:1016B800D6F900B908BDFFF77DFEFBE7340A002024
:1016C8000010014000B589B00023039304930593EB
:1016D80006930793026803F1804303F588339A421F
:1016E80002D009B05DF804FB0021019103F59433A1
:1016F8005A6C42F010025A645A6C02F010020192BD
:10170800019A02911A6B42F001021A631B6B03F0F3
:1017180001030293029B4FF4C063039302230493D3
:10172800032306930723079303A9024800F058FCF4
:10173800D7E700BF0000024000B583B001904FF624
:10174800FF73012201A9034801F0B9F9019803B018
:101758005DF804FB340A002000B583B000238DF83F
:1017680007304FF6FF7301220DF107010A4801F017
:101778000CFA9DF807300D2B06D09DF80700FFF7EF
:10178800DBFF03B05DF804FB0D20FFF7D5FF0A234C
:101798008DF80730F1E700BF340A0020DFF834D0B5
:1017A800FFF774FF0C480D490D4A002302E0D45896
:1017B800C4500433C4188C42F9D30A4A0A4C002393
:1017C80001E013600432A242FBD301F04DFAFFF7A7
:1017D80047FE70470000022000000020B8090020E2
:1017E800D4910008B8090020C80A0020FEE70000CC
:1017F80010B504460E4B18784FF47A73B3FBF0F328
:101808000C4A1068B0FBF3F000F044FB68B90F2CE9
:1018180001D901200AE0002221464FF0FF3000F0F4
:10182800F3FA054B1C60002000E0012010BD00BF4A
:1018380004000020000000200800002008B50B4B21
:101848001A6842F400721A601A6842F480621A60D8
:101858001A6842F480721A60032000F0C3FA00206C
:10186800FFF7C6FFFFF782FE002008BD003C0240DC
:10187800034A1168034B1B780B441360704700BF81
:101888007C0A002004000020014B1868704700BF44
:101898007C0A002038B50446FFF7F6FF0546B4F188
:1018A800FF3F02D0044B1B781C44FFF7EDFF401BA1
:1018B800A042FAD338BD00BF040000204A4B5A6842
:1018C80022F440325A605A6841680A435A600268F2
:1018D800536823F48073536002685368016943EACC
:1018E800012353600268536823F040735360026811
:1018F800536881680B4353600268936823F400635C
:10190800936002689368C1680B439360826A374B9F
:101918009A4257D00268936823F070639360026814
:101928009368816A0B4393600268936823F040537D
:10193800936002689368C16A0B4393600268936876
:1019480023F00203936002689368017E43EA41032F
:10195800936090F82030002B3FD00268536843F41E
:10196800006353600268536823F46043536001685E
:101978004B68426A013A43EA42334B600268D36AD1
:1019880023F47003D3620168CB6AC269013A43EA5F
:101998000253CB620268936823F400739360026871
:1019A800936890F8301043EA412393600268936883
:1019B80023F48063936002689368416943EA812352
:1019C800936070470268936823F0706393600268BD
:1019D800936823F040539360B0E70268536823F498
:1019E80000635360CAE700BF002301400100000FF5
:1019F80038B310B50446036C43B1236C13F0100FD1
:101A08000BD00120002384F83C3010BDFFF7E8FB21
:101A18000023636484F83C30EFE7236C23F4885395
:101A280023F0020343F0020323642046FFF746FF36
:101A380000206064236C23F0030343F00103236454
:101A4800E0E701207047000082B00023019390F87E
:101A58003C30012B00F08980012380F83C3003687A
:101A68009A6812F0010F13D19A6842F001029A6045
:101A7800414B1B68414AA2FB03239B0C03EB430326
:101A8800019302E0019B013B0193019B002BF9D1DB
:101A98000268936813F0010F5CD0036C23F4E063D1
:101AA80023F0010343F480730364536813F4806FD5
:101AB80005D0036C23F4405343F480530364036C50
:101AC80013F4805F1BD0436C23F0060343640023A8
:101AD80080F83C306FF022031360294B5B6813F0E9
:101AE8001F0F27D10368274A934211D002F580724D
:101AF800934207D0244A934214D0002033E00023B5
:101B08004364E4E702F50072526812F01F0FF1D146
:101B18009A6812F0405F2AD19A6842F080429A602F
:101B2800002020E002F58072526812F0100FEFD00A
:101B3800002018E00368134A934201D0002012E005
:101B48009A6812F0405F14D19A6842F080429A6015
:101B5800002008E0036C43F010030364436C43F077
:101B680001034364002002B070470220FBE7002015
:101B7800F9E70020F7E700BF0000002083DE1B43E1
:101B880000230140002001400022014070B50446B6
:101B98000D4603689A6812F4806F03D09B6813F4AB
:101BA800807F19D1FFF770FE064623681A6812F085
:101BB800020F20D1B5F1FF3FF7D0B5B923681B68F4
:101BC80013F0020FF1D1236C43F0040323640023C4
:101BD80084F83C30032032E0036C43F020030364B4
:101BE800002380F83C30012029E0FFF74DFE801BE0
:101BF800A842DAD9E2E76FF012021A60236C43F4C4
:101C08000073236423689A6812F0405F16D1207E1F
:101C1800B0B9DA6A12F4700F03D09B6813F4806FBE
:101C28000DD1236C23F480732364236C13F4805F39
:101C380005D1236C43F00103236400E0002070BD4C
:101C48000020FCE70368D86C7047000030B482B00D
:101C58000023019390F83C30012B00F0BB80012356
:101C680080F83C300B68092B41D90468E2689BB2C4
:101C780003EB43031E3B4FF0070C0CFA03F322EA75
:101C88000303E3600468E2680B8803EB43031E3B2D
:101C98008D6805FA03F31343E3604B68062B3DD8C0
:101CA8000468626B03EB8303053B4FF01F0C0CFACF
:101CB80003F322EA030363630468626B4B6803EB74
:101CC8008303053BB1F800C00CFA03F313436363C5
:101CD8000268414B9A4251D002683F4B9A4256D013
:101CE800002380F83C30184602B030BC70470468C6
:101CF80022699BB203EB43034FF0070C0CFA03F382
:101D080022EA03032361046822690B8803EB430377
:101D18008D6805FA03F313432361BEE70C2B16D82D
:101D280005682A6B03EB8303233B1F2404FA03F3A0
:101D380022EA03032B6305682A6B4B6803EB8303D2
:101D4800233B0C8804FA03F313432B63C0E70568AD
:101D5800EA6A03EB8303413B1F2404FA03F322EAF4
:101D68000303EB620568EA6A4B6803EB8303413BB4
:101D78000C8804FA03F31343EB62A9E70B68122BF0
:101D8800AAD1164A536843F480035360A4E70B684A
:101D9800103B012BA4D8114A536843F40003536045
:101DA8000B68102B9CD10E4B1B6802F1467202F592
:101DB8002E3202F28332A2FB03239B0C03EB830334
:101DC8005B00019302E0019B013B0193019B002B07
:101DD800F9D185E7022087E7002001400023014070
:101DE80000000020074AD36823F4E0631B041B0C9F
:101DF800000200F4E060034343F0BF6343F40033A0
:101E0800D360704700ED00E000B5194BDB68C3F301
:101E18000223C3F1070CBCF1040F28BF4FF0040CD8
:101E280003F1040EBEF1060F18D9033B4FF0FF3E35
:101E38000EFA0CFC21EA0C0199400EFA03F322EA8F
:101E48000303194300280BDB0901C9B200F1604004
:101E580000F5614080F800135DF804FB0023E5E716
:101E680000F00F000901C9B2024B1954F4E700BF92
:101E780000ED00E014ED00E0002807DB00F01F0291
:101E8800400901239340024A42F82030704700BFBE
:101E980000E100E00138B0F1807F0BD24FF0E02381
:101EA8005861054AF02182F8231000209861072222
:101EB8001A6170470120704700ED00E070B110B55D
:101EC8000446037933B102232371002020610123E2
:101ED800237110BD4371FFF7D9F9F4E7012070476A
:101EE80080B303464279012A2ED010B401224271F0
:101EF800022018711C68206801F0100C02FA0CF21C
:101F08000243226081B919680A6802F03C023C2A3F
:101F180005D001221A710020587110BC70474A6818
:101F280042F001024A60F4E71868016801F4701190
:101F38003C2202FA0CFC6145EBD1426842F00202F5
:101F48004260E6E7012070470220704710B483B072
:101F58000024019488B10068019049B901990A44A4
:101F680008320192019A1360002003B010BC704738
:101F780001990A4414320192F4E70120F5E748B3C5
:101F8800844649B34379012B28D010B54FF0010E90
:101F980080F805E0022303710468236802F0100248
:101FA80040F6FE70904023EA00000B6849680B4336
:101FB800934003432360DCF800000368C02101FA62
:101FC80002F223EA020202608CF804E000208CF896
:101FD800050010BD0120704701207047022070479E
:101FE80000230F2B00F2E48070B582B060E08568B2
:101FF8005E000324B44025EA0405CC68B4402C43B1
:102008008460456825EA02054C68C4F300129A40CA
:102018002A4342605AE0DC08083450F8246003F090
:10202800070295000F22AA4026EA020E0A69AA4072
:1020380042EA0E0240F824205CE0072200E0002279
:1020480002FA0EF22A4302345A4D45F824205A4A1D
:1020580094686FEA0C0224EA0C054E6816F4801F97
:1020680001D04CEA0405544CA560E46802EA040572
:102078004E6816F4001F01D04CEA04054E4CE5608A
:10208800646802EA04054E6816F4003F01D04CEA81
:102098000405494C6560246822404D6815F4803F6A
:1020A80001D04CEA0402444C226001330F2B7DD846
:1020B80001229A400C6804EA020C32EA0404F4D1C2
:1020C8004C6804F00304013C012C90D94A6802F0E2
:1020D8000302032A09D0C4685D000322AA4024EA47
:1020E80002048A68AA402243C2604A6802F00302D6
:1020F800022A90D004684FEA430E032202FA0EF235
:1021080024EA02044A6802F0030202FA0EF22243A9
:1021180002604A6812F4403FC7D000220192274A61
:10212800546C44F480445464526C02F4804201922A
:10213800019A9C08A51C1F4A52F8255003F0030277
:102148004FEA820E0F2202FA0EF225EA02051C4A15
:1021580090423FF474AF02F5806290421AD002F5C3
:102168008062904218D002F58062904216D002F543
:102178008062904214D002F58062904212D002F53B
:102188008062904210D002F5806290423FF455AFD1
:10219800082255E7012253E7022251E703224FE7BD
:1021A80004224DE705224BE7062249E702B070BD3D
:1021B800704700BF00380140003C01400038024031
:1021C800000002400AB181617047090481617047CB
:1021D8007047000008B5054B5B69034200D108BD94
:1021E800024B5861FFF7F4FFF9E700BF003C0140DC
:1021F800002800F0E08170B582B00446036813F04F
:10220800010F3BD09F4B9B6803F00C03042B2CD091
:102218009C4B9B6803F00C03082B21D06368B3F533
:10222800803F4FD0B3F5A02F52D0964B1A6822F4B6
:1022380080321A601A6822F480221A606368002BC0
:1022480050D0FFF721FB05468E4B1B6813F4003F67
:1022580014D1FFF719FB401B6428F5D90320B1E11D
:10226800884B5B6813F4800FD8D0864B1B6813F437
:10227800003F03D06368002B00F09F81236813F0B0
:10228800020F54D07F4B9B6813F00C0F3ED07D4B50
:102298009B6803F00C03082B33D0E368002B68D04D
:1022A800794B01221A60FFF7EFFA0546754B1B6858
:1022B80013F0020F54D1FFF7E7FA401B0228F5D9B3
:1022C80003207FE16F4A136843F480331360B5E756
:1022D8006C4B1A6842F480221A601A6842F4803201
:1022E8001A60ABE7FFF7D0FA0546664B1B6813F494
:1022F800003FC3D0FFF7C8FA401B6428F5D9032074
:1023080060E1604B5B6813F4800FC6D15D4B1B68BE
:1023180013F0020F03D0E368012B40F05081594AB3
:10232800136823F0F803216943EAC10313602368A3
:1023380013F0080F42D063696BB3534B0122C3F803
:10234800802EFFF7A1FA05464E4B5B6F13F0020F84
:1023580034D1FFF799FA401B0228F5D9032031E15F
:10236800484A136823F0F803216943EAC10313605C
:10237800DDE7454B00221A60FFF786FA0546414B18
:102388001B6813F0020FD2D0FFF77EFA401B022819
:10239800F5D9032016E13C4B0022C3F8802EFFF745
:1023A80073FA0546374B5B6F13F0020F06D0FFF741
:1023B8006BFA401B0228F5D9032003E1236813F0C8
:1023C800040F77D02F4B1B6C13F0805F33D10023A1
:1023D80001932C4B1A6C42F080521A641B6C03F068
:1023E80080530193019B0125284B1B6813F4807FC0
:1023F80023D0A368012B34D0052B38D0214B1A6F7A
:1024080022F001021A671A6F22F004021A67A36801
:10241800002B3DD0FFF738FA06461A4B1B6F13F016
:10242800020F46D1FFF730FA801B41F288339842F9
:10243800F3D90320C6E00025D6E7144A136843F40D
:1024480080731360FFF720FA0646104B1B6813F4DD
:10245800807FCED1FFF718FA801B0228F5D9032018
:10246800B0E0084A136F43F001031367CFE7054B49
:102478001A6F42F004021A671A6F42F001021A67D3
:10248800C5E700BF00380240000047420070004026
:10249800FFF7FAF90646524B1B6F13F0020F08D0EC
:1024A800FFF7F2F9801B41F288339842F3D90320F1
:1024B80088E0EDB9A369002B00F08380484A926850
:1024C80002F00C02082A51D0022B17D0454B0022EB
:1024D8001A66FFF7D9F90446414B1B6813F0007FD1
:1024E80042D0FFF7D1F9001B0228F5D9032069E093
:1024F8003B4A136C23F080531364DBE7394B00220B
:102508001A66FFF7C1F90546354B1B6813F0007FC3
:1025180006D0FFF7B9F9401B0228F5D9032051E08E
:10252800E369226A1343626A43EA8213A26A520881
:10253800013A43EA0243E26A43EA0263284A5360E3
:10254800284B01221A66FFF79FF90446244B1B68A3
:1025580013F0007F06D1FFF797F9001B0228F5D981
:1025680003202FE000202DE000202BE0012B2BD0B2
:102578001B4B5B6803F48001E269914226D103F0AA
:102588003F02216A8A4223D1616A47F6C0721A4023
:10259800B2EB811F1ED103F44031A26A5208013AFE
:1025A800B1EB024F18D103F07063E26AB3EB026F2C
:1025B80014D1002006E001207047012002E001202C
:1025C80000E0002002B070BD0120FBE70120F9E720
:1025D8000120F7E70120F5E70120F3E70120F1E703
:1025E800003802400000474208B5314B9B6803F0B1
:1025F8000C03042B57D0082B57D12D4B5A6802F0E7
:102608003F025B6813F4800F2AD0294B5968C1F345
:10261800881C4FEA4C11B1EB0C006EEB0E0E4FEA22
:102628008E1343EA90638101091A63EB0E03DB0002
:1026380043EA5173C90011EB0C0C43F10003590232
:1026480000234FEA4C2041EADC51FEF759FB184BB6
:102658005B68C3F3014301335B00B0FBF3F025E093
:10266800134B5968C1F3881C4FEA4C11B1EB0C00AD
:102678006EEB0E0E4FEA8E1343EA90638101091A3E
:1026880063EB0E03DB0043EA5173C90011EB0C0C3A
:1026980043F10003990200234FEA8C2041EA9C5140
:1026A800FEF72EFBD3E7034800E0034808BD00BF50
:1026B8000038024000127A000024F400002800F0DC
:1026C8009B8070B50D4604464F4B1B6803F007030B
:1026D8008B4208D2CBB24C4A1370136803F007033D
:1026E8008B4240F08B80236813F0020F17D013F051
:1026F800040F04D0454A936843F4E0539360236879
:1027080013F0080F04D0414A936843F46043936080
:102718003E4A936823F0F003A1680B439360236853
:1027280013F0010F32D06368012B21D09A1E012AC1
:1027380025D9364A126812F0020F61D033498A68E7
:1027480022F0030213438B60FFF79EF806462F4BD7
:102758009B6803F00C036268B3EB820F16D0FFF797
:1027680093F8801B41F288339842F0D9032042E065
:10277800264A126812F4003FE0D101203BE0234AC8
:10278800126812F0007FD9D1012034E01E4B1B687B
:1027980003F00703AB4207D9EAB21B4B1A701B6858
:1027A80003F00703AB422DD1236813F0040F06D0C2
:1027B800164A936823F4E053E1680B439360236857
:1027C80013F0080F07D0114A936823F46043216976
:1027D80043EAC1039360FFF707FF0C4B9B68C3F301
:1027E80003130B4AD35CD8400A4B18600A4B18688D
:1027F800FEF7FEFF002070BD012070470120FAE7B8
:102808000120F8E70120F6E7003C024000380240CA
:10281800A88D00080000002008000020014B18685F
:10282800704700BF0000002008B5FFF7F7FF044B12
:102838009B68C3F38223034AD35CD84008BD00BF1A
:1028480000380240B88D000808B5FFF7E7FF044BD1
:102858009B68C3F34233034AD35CD84008BD00BF2A
:1028680000380240B88D0008026802F10C0353E8F2
:10287800003F23F490730C3242E800310029F3D171
:10288800026802F1140353E8003F23F001031432F5
:1028980042E800310029F3D1036B012B05D0202336
:1028A80080F84230002303637047026802F10C038A
:1028B80053E8003F23F010030C3242E800310029AE
:1028C800F3D1ECE738B504460268136923F44053A2
:1028D800C1680B4313618368026913434269134358
:1028E800C2691A430168CB6823F4164323F00C032A
:1028F8001343CB600268536923F4407381690B4327
:1029080053610368314A934206D002F580629342CC
:1029180002D0FFF789FF01E0FFF796FFE369B3F5FF
:10292800004F29D00021031849411B1841F100012B
:10293800C90041EA5371DB00181863684FEA830243
:102948004FEA937341F10001FEF7DAF9204DA5FB38
:1029580000325109642303FB11031B013233A5FB29
:1029680003235B0903F0F00202EB011203F00F03EB
:10297800216813448B6038BD0023021843EB030120
:10298800121841F10001C90041EA5271D200101831
:1029980041F10001626892185B41FEF7B1F90C4DF4
:1029A800A5FB00325109642303FB1103DB0032331A
:1029B800A5FB03235B095A0002F4F87202EB01122B
:1029C80003F00703216813448B60D4E7001001402B
:1029D8001F85EB512DE9F04383B005460E46174697
:1029E8009946DDF828802C68246836EA04030CBF71
:1029F8004FF0010C4FF0000CBC4528D1B8F1FF3F57
:102A0800F1D0FEF741FFA0EB0900404523D8B8F10B
:102A1800000F22D02B68DA6812F0040FE3D0802E62
:102A2800E1D0402EDFD01A6812F0080FDBD0002466
:102A380001941A6801925B680193019B2846FFF78D
:102A480013FF08236B6485F84040012000E0002054
:102A580003B0BDE8F0830320FAE70320F8E760B38A
:102A680010B5044690F8413013B3242384F841305C
:102A78002268D36823F40053D3602046FFF722FF6F
:102A88002268136923F4904313612268536923F081
:102A98002A0353612268D36843F40053D3600020AB
:102AA8006064202384F8413084F84230606310BDAC
:102AB80080F84030FEF706FED7E7012070472DE981
:102AC800F04182B01E4690F84130DBB2202B56D13F
:102AD80004460D469046002955D00AB901204FE01A
:102AE80000234364212380F84130FEF7CDFE0746DA
:102AF800A4F82480A4F82680A368B3F5805F02D0E8
:102B08004FF0000814E023692BB34FF000080FE0E2
:102B1800202384F84130032032E038F8023B226851
:102B2800C3F308035360E28C92B2013A92B2E28492
:102B3800E38C9BB293B100963B460022802120464D
:102B4800FFF748FF0028E3D1002DE6D015F8012B48
:102B580023685A60E7E7A8460025E9E700963B4660
:102B6800002240212046FFF735FF18B9202384F8BA
:102B7800413005E0202384F84130032000E00220A2
:102B880002B0BDE8F0810120FAE72DE9F04182B0FA
:102B98001E4690F84230DBB2202B59D104460D4630
:102BA8009046002958D00AB9012052E00023436416
:102BB800222280F842200363FEF766FE0746A4F847
:102BC8002C80A4F82E80A368B3F5805F02D04FF064
:102BD80000081CE0236913B14FF0000817E0A8466D
:102BE800002514E0202384F84230032031E02368D4
:102BF8005B68C3F3080328F8023B03E023685B68BB
:102C08002B700135E28D92B2013A92B2E285E38DE2
:102C18009BB2C3B100963B46002220212046FFF715
:102C2800D9FE0028DED1002DE1D0A368B3F5805F7E
:102C3800E4D013B92369002BE0D023685B6803F064
:102C48007F032B70DDE7202384F84230002000E06A
:102C5800022002B0BDE8F0810120FAE7014B1868B4
:102C6800704700BF0C00002070B50D4E0D4D761B4F
:102C7800B61006D0002455F8043B01349847A64204
:102C8800F9D1094E094D06F063F8761BB61006D047
:102C9800002455F8043B01349847A642F9D170BD89
:102CA800C8910008C8910008D0910008C891000890
:102CB800830730B548D0541E002A3FD00346CAB215
:102CC80001E0013C3AD303F8012B9D07F9D1032C0D
:102CD8002DD9CDB245EA05250F2C45EA054536D94B
:102CE800A4F1100222F00F0C03F1200EE6444FEA83
:102CF800121C03F1100242E9045542E90255103250
:102D08007245F8D10CF1010214F00C0F03EB02121A
:102D180004F00F0C13D0ACF1040323F003030433C5
:102D2800134442F8045B9342FBD10CF003042CB12A
:102D3800CAB21C4403F8012B9C42FBD130BD644647
:102D48001346002CF4D1F9E703461446BFE71A46A8
:102D5800A446E0E70FB400B5074A83B004AB106897
:102D680053F8042B8168019300F08CF803B05DF8E8
:102D780004EB04B0704700BF0C00002030B50546D6
:102D880089B008460C4600F04FF801210223214A79
:102D980004940692AA6B04AC059008440194079128
:102DA800AC680293039022B3636E13F0010FB4F979
:102DB8000C309AB201D1980525D5910406D4626EDB
:102DC80043F4005322F40052A3816266284601AA04
:102DD800214603F079F9636E002814BF4FF0FF35E0
:102DE8000A25DA0702D4A3899B0506D5284609B027
:102DF80030BD284602F070FFD6E7A06D03F00AFB4D
:102E0800284609B030BDA06D03F002FBB4F90C30C0
:102E18009AB2D2E7C48D0008024B01461868FFF742
:102E2800ADBF00BF0C00002020F0030110F003002C
:102E3800C0F1000051F8043B00F1040C4FEACC0C3F
:102E48006FF000021CBF22FA0CF213434FF0010C82
:102E58004CEA0C2C4CEA0C4CA3EB0C0222EA0302C1
:102E680012EACC1204BF51F8043B0430F4D0C2F18A
:102E7800000102EA0102B2FA82F2C2F11F0200EB7B
:102E8800D20070472DE9F04FD5B01C469146079106
:102E98000546099003F0B4FA02680E94104617929A
:102EA800FFF7C2FF16901DB1AB6B002B00F01D821F
:102EB800079A536EDD0740F12D81B2F90C2091B2CB
:102EC8008F0409D4079B42F400529A8191B21A46A2
:102ED8005B6E23F4005353660E0740F1C080079BD6
:102EE8001B69002B00F0BB8001F01A030A2B00F0CD
:102EF800C48000242BAB224698464D46CDE9294490
:102F08002893129400230024CDE914342B78CDE9BA
:102F18001922CDE91B2218920B92002B00F08F8109
:102F2800AA4604E01AF8013F002B00F0BB80252BCD
:102F3800F8D1BAEB050640F0B9809AF80030002BBA
:102F480000F07D8100234FF0FF324FF02B09202441
:102F58001F469AF8016008920AF1010A8DF8833039
:102F68000A930AF1010AA6F120035A2B00F2E18024
:102F7800DFE813F00503DF00DF000003DF00DF00F8
:102F8800DF00DE02DF00DF006A006E02DF005502AC
:102F98007802DF0073025B005B005B005B005B0094
:102FA8005B005B005B005B00DF00DF00DF00DF0031
:102FB800DF00DF00DF006C01DF00EA01C4016C0103
:102FC8006C016C01DF00DF00DF00DF00D002DF00F2
:102FD800DF002302DF00DF00DF00F801DF009202DC
:102FE800DF00DF008707DF00DF00DF00DF00DF0032
:102FF800DF00DF00DF006C01DF00EA01C6016C01C1
:103008006C016C01B602C601BF01DF00C302DF001C
:103018005A022502A402BF01DF00F80172008407EA
:10302800DF00DF006507DF0072000022A6F1300331
:103038001AF8016B02EB820203EB4202A6F130039D
:10304800092BF5D90A928EE70E9B53F8042B002A18
:103058000A920E93C0F2E0819AF8006081E7079D1A
:103068000998294601F0FCFC002841F04D83A98904
:1030780001F01A030A2B7FF43CAF079AB2F90E301D
:10308800002BFFF636AF536ED80702D4890541F1FD
:10309800488123464A460799099855B0BDE8F04F3C
:1030A80001F09CBCBAEB050600F0C9802A9BC8E970
:1030B800005633442A93299B0133072B299305DCB7
:1030C80008F108080B9B33440B9336E707990998D6
:1030D80028AA04F01FFC80B90DF1AC08F2E70799A3
:1030E800099828AA04F016FC002800F099800D9B86
:1030F8001BB11946099802F0E7FE079A536ED907E3
:1031080040F1E88093895B0601F10A830B9855B07A
:10311800BDE8F08F079BB3F90C20900591B23FF5FD
:10312800CFAE1D46986D03F073F9B5F90C2091B236
:10313800C6E6002E00F08380012300228DF8EC60A3
:1031480006933BAD8DF883200C930D9208920F9255
:103158001392109217F0020302D0069902310691D9
:1031680017F0840B07D10A990698A1EB0009B9F169
:10317800000F00F390832A9C82B10122C8F8042032
:10318800299A013401320DF18301072A2A942992E0
:10319800C8F8001000F3D88308F108087BB10223AF
:1031A800C8F80430299B0234013321AA072B2A943A
:1031B8002993C8F8002000F3D58308F10808BBF16B
:1031C800800F00F08882089B0C9AA3EB020BBBF1DE
:1031D800000F00F3CB82FB0500F11F820C9BC8F89F
:1031E80000501C44C8F80430299B2A940133072B4B
:1031F800299300F3448308F10808780705D50A9B4A
:10320800069A9D1A002D00F3B983DDE90A23069971
:103218008A42ACBF9B185B180B93002C7FF45FAFFE
:10322800002329930D9B1BB10D99099802F04CFEC0
:1032380055460DF1AC082B78002B7FF471AE2A9B14
:10324800002B41F010820023299356E70E9B073389
:1032580023F00702F2E80234CDE91434DDE914342E
:1032680024F00044994618460E9221464FF0FF324A
:10327800AB4BFDF73FFF002840F018854846214634
:103288004FF0FF32A64BFDF787FC002840F00E8573
:10329800DDE9140100220023FDF774FC002840F04A
:1032A80065879DF88320002103209E4D9E4B27F0C3
:1032B80080070D910690472EC8BF1D4608910C90B7
:1032C8000F9113911091002A3FF444AF069B0133EC
:1032D80006933FE7079B9B899A053FF514AF079C28
:1032E800A06D03F097F8A3890DE7099802F0F4FCA4
:1032F800DEE59AF8006047F0200732E647F010074D
:10330800BA060E9B40F16E84073323F007031A4672
:103318005B6852F8084B99460E92002BC0F26F84F6
:10332800089B013300F0FB8254EA090327F0800B65
:1033380040F0F682089B002B40F0F7825F4600239E
:1033480054AD08930C933DE1012000220E9B06909A
:1033580053F8041B3BAD8DF883208DF8EC100E93C9
:103368000C90F2E64FF000090E9C089B54F8045BA1
:103378008DF88390002D00F0A1855A1C00F0A586D9
:103388001A464946284603F063FB0D90002801F0D1
:1033980050810D9B9DF883205B1B0C9323EAE373FC
:1033A800CDF820900E940693CDF83490CDF83C904B
:1033B800CDF84C90CDF8409085E747F0100717F00E
:1033C800200900F0F2830E9B073323F00703D3F89C
:1033D800049053F8084B0E93002327F4806B0022C7
:1033E8008DF88320089A511C00F0D48054EA090112
:1033F8002BF0800740F0CD80002A40F00486002B97
:103408009DD11BF001030C9300F0308430230DF2A2
:103418004F158DF84F31D5E00A9B5B420A939AF815
:10342800006047F004079CE5BD0600F1FD84FC063A
:1034380000F1EE85780600F1B286B90540F1E8851D
:103448000E9B0B9953F8042B554611700E93F2E618
:103458009AF800608DF8839083E59AF8006047F049
:1034680080077EE5524612F8016B2A2E01F08D8204
:10347800A6F13003092B924698BF002201F2E5809D
:103488001AF8016B02EB820203EB4202A6F1300349
:10349800092BF5D9089266E547F0100B1BF02009B7
:1034A80000F091830E9B073323F007031A4652F866
:1034B800084BD3F804900E92012390E73022782627
:1034C8000E9B8DF8842053F8044B184A0E934FF046
:1034D8000009022347F0020B8DF8856018927EE7F9
:1034E8009AF80060682E03BF9AF8016047F40077E5
:1034F8000AF1010A47F0400733E59AF800606C2E9C
:1035080003BF9AF8016047F020070AF1010A47F063
:10351800100726E59AF8006047F0080721E500BF84
:10352800FFFFEF7FC88D0008CC8D0008D88D0008FC
:10353800099E304602F064FF436818461B93FFF764
:1035480073FC034630461C931E4602F059FF8368FD
:103558001993002E3FF480AD199B002B3FF47CADEE
:10356800199B1B78002B3FF477AD9AF8006047F45D
:103578008067F6E49AF8006047F00107F1E49DF8E7
:103588008330002B7FF468AD9AF800608DF8834093
:10359800E7E4BB46012B00F0C381022B54AD1FD1D9
:1035A800189A04F00F03D35C240944EA09744FEA1B
:1035B800191905F8013D54EA0903F2D15F4654ABE5
:1035C8005B1B0C93089A0C9900238A42B8BF0A46E1
:1035D8000D9306920F939DF883201393109372E630
:1035E80004F00703E40844EA49744FEAD909303380
:1035F80054EA09012A4605F8013DF1D11BF0010FF3
:10360800DCD0302BDAD03023023A05F8013C54AB39
:103618009B1A5F4615460C93D4E7652E40F3E98064
:10362800DDE9140100220023FDF7A2FA002800F0CA
:10363800E1810123C8F80430299BC04A01330134D1
:10364800072B2A942993C8F8002000F3BF8408F1B7
:103658000808229B129A934280F2DC82169B179AE2
:103668001C44C8E90023299B2A940133072B29937A
:1036780000F3178408F10808129B5D1E002D7FF7E0
:10368800BCAD102D41F35D81DFF8B4922246494666
:103698001026B946299B0F46DDF824B0079C05E0A3
:1036A80008F10808103D102D40F39D8401331032B5
:1036B800072BC8E90076CDE92932F1DD21465846C5
:1036C80028AA04F027F900287FF411ADDDE9293292
:1036D8000DF1AC08E6E70A9B069AA3EB020BBBF1D7
:1036E800000F7FF770ADBBF1100F41F35280DFF888
:1036F800509241462046A8464C461023299A079DD9
:10370800DDF8249006E0ABF1100BBBF1100F01F1CE
:10371800080119DD01321030072AC1E90043CDE95B
:103728002920F0DD2946484628AA04F0F3F80028A5
:103738007FF4DDACDDE92920ABF1100BBBF1100FF4
:103748004FF010032BA9E5DC4546A1468846044600
:1037580001325C44072ACDE92924C8F80090C8F84A
:1037680004B000F3918308F108082CE5BBF1100FB1
:1037780040F3E384DFF8C89141462046A8464C460A
:103788001023299A079DDDF8249006E0ABF1100B71
:10379800BBF1100F01F1080119DD01321030072AC1
:1037A800C1E90043CDE92920F0DD2946484628AA89
:1037B80004F0B0F800287FF49AACDDE92920ABF1D9
:1037C800100BBBF1100F4FF010032BA9E5DC454699
:1037D800A1468846044601325C44072ACDE92924DB
:1037E800C8F80090C8F804B000F3D28108F10808BE
:1037F800F1E4129B012B40F382810123299E0134BD
:103808001E44072EC8F800502A94C8F80430299698
:1038180000F36C8308F10808169B0136179A1C44BC
:10382800072EC8E90023CDE9296400F36C8308F169
:1038380008080022DDE914010023FDF799F90028A2
:1038480040F07A81129B0136013B01351C44072E5A
:10385800C8F800502996C8F804302A9400F35F810C
:1038680008F108081A9B01361C44C8F80430072ED2
:1038780024ABCDE92964C8F800307FF7BCAC0799C0
:10388800099828AA04F046F800287FF430AC2A9C4E
:103898000DF1AC08B1E4B9F1100F40F3C686DDE9CB
:1038A80029214046CDE91D36B84610244F46079ECB
:1038B800A946099D04E0103F102F00F1080016DD0D
:1038C8000132204B1031072AC0E90034CDE9292103
:1038D800F1DD3146284628AA04F01CF800287FF4B8
:1038E80006ACDDE92921103F102F2BA8E8DC4D4656
:1038F800DDE91D36B9464746804609EB0104013229
:103908001049072ACDE92924C8F80490C8F80010FE
:1039180000F340839DF8832008F108082CE4BB4697
:103928000A2C79F1000380F0FB82012330345F46D2
:103938008DF84F410C930DF24F1543E6088E0008A1
:103948001C8E00080C8E00080799099828AA1D9358
:1039580003F0E0FF00287FF4CAAB2A9C1D9B0DF101
:10396800AC081BE40799099828AA03F0D3FF00289C
:103978007FF4BDAB2A9C0DF1AC0820E4102D40F378
:10398800BE861026299B099FDDF81C9004E0103D97
:10399800102D08F1080817DD0133BA4A1034072B37
:1039A800C8E90026CDE92934F1DD4946384628AA78
:1039B80003F0B0FF00287FF49AABDDE92934103D0D
:1039C800102D0DF1AC08E7DC0133AE4A2C44072B6F
:1039D800CDE92934C8F80450C8F800207FF715ACA1
:1039E8000799099828AA03F095FF00287FF47FAB70
:1039F8002A9C0AE42299002940F31081DDF84090BE
:103A0800129B9945A8BF9946B9F1000F0BDD299B78
:103A18004C440133072BC8E900592A94299300F331
:103A2800818508F10808109EB9F1000FA8BFA6EB20
:103A38000906002E00F3F582DDF840B07905AB44A5
:103A480000F1AC84229B129A934202DBFA0740F100
:103A58009283169A17991444C8E90012299A2A944D
:103A68000132072A299200F3A88508F10808129A5A
:103A7800AE18A6EB0B06D51AAE42A8BF2E46002EEE
:103A88000DDD299B34440133072BC8F800B0C8F872
:103A980004602A94299300F3FC8508F10808002E95
:103AA800A8BFAD1B002D7FF7A8AB102D40F34987A9
:103AB800DFF8D491224649461026B946299B0F467D
:103AC800DDF824B0079C05E008F10808103D102D2A
:103AD80040F3898201331032072BC8E90076CDE91B
:103AE8002932F1DD2146584628AA03F013FF0028A1
:103AF8007FF4FDAADDE929320DF1AC08E6E7FE07FF
:103B08003FF57BAE0123299E01341E44072EC8F8D9
:103B180000502A94C8F8043029967FF7A1AE079977
:103B2800099828AA03F0F6FE00287FF4E0AADDE948
:103B380029640DF1AC0895E6129B5D1E002D7FF7F8
:103B480091AE102D40F31987224608974FF0100BBD
:103B5800DFF83491099C079F05E008F10808103D3B
:103B6800102D40F3C78201361032072EC8E9009B9A
:103B7800CDE92962F1DD3946204628AA03F0CAFEBC
:103B880000287FF4B4AADDE929620DF1AC08E6E764
:103B98000799099828AA03F0BDFE00287FF4A7AA70
:103BA8002A9C0DF1AC08FFF716BB17F0100377D16C
:103BB80017F0400200F0AC820E9A994652F8044B76
:103BC8000E92A4B208E41BF010030E9A54D11BF015
:103BD80040014DD052F8044B99460E920123A4B2ED
:103BE800FFF7FDBB53F8044B0E93FB0653D47D0639
:103BF8004ED544F3C0394B4624B2FFF78EBB2D2374
:103C080064428DF88330BB464FF0010369EB4909E4
:103C1800FFF7E8BBF8077FF5F0AA1FE50123C8F80E
:103C28000430299B194A01330134072B2A9429931C
:103C3800C8F8002000F3688408F10808002940F05B
:103C48002582129A07F0010313433FF4D6AA169B64
:103C58001799E218C8E90013299B2A920133072B08
:103C6800299300F3508308F1080820E254ADA9E431
:103C78001BF4007940F0A08252F8044B01230E9205
:103C8800FFF7ADBB0C8E00081C8E0008088E0008DC
:103C9800B80500F179824FEAE4794B46FFF73DBB5E
:103CA8000E9B53F8044B0E93FFF796BBDDE9140106
:103CB80002460B46FDF71EFA002840F0F785612EF4
:103CC80000F06C85412E00F07F82089B013300F0E4
:103CD800948526F02003472B069300F07B85DDE9C9
:103CE800141247F480730F931346002BC0F2F48527
:103CF8000C9300238B461D930D93069B462B00F0D7
:103D08002B84452B00F0148508990C9B0191022106
:103D1800009126A9049123A9039122A95A4609983A
:103D2800029100F0ADFF069B0546472B40F0448604
:103D380017F0010FB9460F9F40F0F784269B5B1BD5
:103D48001293069B472B00F0F182069B462B00F04E
:103D58004284229B1093109B069A013B412A22938E
:103D680000F08A850021F2B2002B8DF89020B6BFB2
:103D78002D222B22109B8DF89120B8BFC3F101038F
:103D8800092B40F381850DF19F0C6246BA4F1C4602
:103D9800104687FB0312D917C1EBA20101EB810280
:103DA800A3EB42023032632C00F8012C0B4600F1E1
:103DB800FF32ECDC3033811EDBB28C4502F8013C6B
:103DC80040F2FF850DF1920101E012F8013B9445A4
:103DD80001F8013BF9D10DF1A1030DF192021B1A73
:103DE800134424AA9B1A1A93129B1A9A012B1A4459
:103DF8000C9240F39E850C9B169A13440C93002357
:103E08000C9A29F4806722EAE27247F480770F93CC
:103E18000692139310931D9B002B40F0B0829DF8DF
:103E280083200893FFF74FBA0E9B0B9853F8041B97
:103E3800C2175546C1E900020E93FFF7FCB98F4B34
:103E4800189317F0200949D00E9B073323F0070376
:103E5800D3F8049053F8084B0E93F80709D554EAA1
:103E6800090306D030238DF8856047F002078DF8E6
:103E78008430022327F4806BFFF7B1BABB46FFF703
:103E88000DBB7F4B1893DCE70799099828AA03F024
:103E980041FD00287FF42BA92A9C0DF1AC08FFF7FF
:103EA80092B90799099828AA03F034FD00287FF4ED
:103EB8001EA92A9C0DF1AC08FFF7DEBB062B29468C
:103EC80028BF06232A4608950D9506936D4D0E9436
:103ED8000C930F9113911091FFF7F5B917F0100398
:103EE80069D00E9B53F8044B0E93B6E707990998CF
:103EF80028AA03F00FFD00287FF4F9A8DDE929645A
:103F08000DF1AC0888E40799099828AA03F002FD86
:103F180000287FF4ECA8DDE929640DF1AC0888E4F9
:103F280000230BF48062CDE90CA8069692461E4643
:103F3800DDF8648054AF0CE00023204649460A228D
:103F4800FCF7DEFE0A2C79F100031BD304468946F0
:103F58002F4620460A2200234946FCF7D1FE30327C
:103F68007D1E013607F8012CBAF1000FE4D098F84D
:103F780000309E42E0D1FF2EDED00A2C79F10003FA
:103F880080F0E080CDF864801296DDE90CA8069EEA
:103F9800FFF714BB0799099828AA1D9303F0BAFCE8
:103FA80000287FF4A4A89DF883202A9C1D9B0DF16E
:103FB800AC08FFF7E1B817F0400200F0B4800E9AA1
:103FC800994652F8044B0E92A4B246E7079909980D
:103FD80028AA03F09FFC00287FF489A82A9C0DF1E9
:103FE800AC08FFF736BB14463A464F4691460133B4
:103FF8002C44072BC8F80090C8F80450CDE92934A0
:104008007FF7F9A83BE4012BBB467FF4C6AA8CE4F2
:104018000E9B0B9953F8042B554611600E93FFF72E
:104028000AB9102E40F3AD84DFF85C90424648464A
:104038002146A846B9464FF0100B0746299B099C14
:10404800079D04E00832103E102E40F348820133E9
:104058001031072BC2E9007BCDE92931F2DD294671
:10406800204628AA03F056FC00287FF440A8DDE982
:1040780029312BAAE7E700BF67666666D88D000876
:10408800EC8D0008008E00081C8E0008169B1798FF
:10409800E218C8E90003299B2A920133072B2993C8
:1040A80000F3318108F108080029C0F2028312994F
:1040B80001338C18072BCDE92934C8F80050C8F80B
:1040C80004107FF798A8FFF7DABB2846CDF82090B0
:1040D8000E94FEF7A9FE20EAE073CDE90C099DF8DD
:1040E8008320CDF83C90CDF84C90CDF840900693C5
:1040F800FFF7E9B81446089F01362C44072ECDE98E
:104108002964C8F80090C8F804507FF7A9AB06E501
:1041180017F400790E9B3DD053F8044B91460E934B
:10412800E4B2FFF759B917F400790E9B40D053F861
:10413800044B91460E93E4B28FE6299ADFF84C922D
:10414800FFF749BB1C9B1B99ED1A1A46284603F03A
:1041580071FB98F801300BB108F101082046494677
:104168000A2200230026FCF7CBFDEFE62D228DF86E
:104178008320FFF798B8129AAE18A6EB0B06D51A4B
:10418800AE42A8BF2E468AE444F3C0194B4664B237
:10419800FFF7C3B853F8044B0E93FFF71DB90E9BF6
:1041A8000B9953F8042B554611800E93FFF743B82B
:1041B80053F8044B0E9350E652F8044B89460123FA
:1041C8000E92E4B2FFF70BB930238DF884305823F0
:1041D8008DF88530089B47F00204632B00F3E382D7
:1041E80000233BAD0D9347F481730F93DDE914125F
:1041F8001346002B2746C0F240820C9300238B46BF
:104208001D9326F020030693612E00F01783412E9C
:104218007FF473AD22AA58460C9903F07BFA00226A
:104228004FF07F53FCF73CFA02460B46CDE91023CA
:1042380000220023FCF79CFC08B101232293544B75
:104248000C93089BCDE912A6CDE91E78DDE910672D
:10425800AB46DDF830A003F1FF39109506E00022E7
:10426800002309F1FF39FCF783FCE8B90022494B28
:1042780030463946FCF714FA0F460646FCF750FF5D
:104288000446FCF7A3F90B46024639463046FCF7CC
:104298004FF81AF80430B9F1FF3FD8464D460646A4
:1042A8000F460BF8013BDAD13046394600223A4B2B
:1042B800A946DDF848A0109DCDF84880CDE9100149
:1042C800DDF87C80139E1E9FFCF77AFC002840F0E6
:1042D8004482DDE9100100222F4BFCF749FC10B1A4
:1042E800E10700F13A824B46002B06DB302201330E
:1042F8005B440BF8012B5B45FBD1ABEB0503B946DF
:1043080012930F9F1DE50799099828AA03F002FB4D
:1043180000287EF4ECAEDDE9293222990DF1AC08D3
:10432800C2E6906D02F076F8FEF7B3BE229BDA1C67
:10433800109302DB089A934204DD023E26F0200324
:10434800069308E5109B129A9342C0F2828119F0F5
:10435800010F00F0A882169A13440C9319F4806F89
:1043680000F09082109B6726002B00F346810C9B7F
:1043780023EAE373069300230F9313934BE52D224F
:1043880000238DF883200893FEF7A0BF1C8E000839
:10439800EC8D0008000030400000E03F129B4246D0
:1043A800DDF84C80EB185E460893CDF830A01097E6
:1043B8002146199FDDF87090DDF824A0DDF81CB0C7
:1043C8000F9B1395B8F1000F2ED0002B6CD1013F35
:1043D80008F1FF381B9B4944C2E90039299B2A91FF
:1043E8000133072B299363DC0832089B38789B1B21
:1043F8008342A8BF0346002B1C460ADD29981944AE
:1044080001300728C2E900632A9129905BDC3878DB
:104418000832002CB4BF0546051B002D15DC0644E8
:104428000F9BB8F1000FD0D1002B3DD1DDE912353B
:10443800EB189E42B346199790460C4628BF9B46F8
:10444800DDF830A0109FFFF7FDBA102D40F36F8202
:104458001024299804E0103D102D02F1080216DD01
:104468000130A84B10310728C2E90034CDE92901F1
:10447800F1DD5946504628AA03F04CFA00287EF48C
:1044880036AEDDE92901103D102D2BAAE8DC0130FC
:104498009C4B29440728CDE92901556013604EDC5F
:1044A800387808320644BBE70F9B013B0F9391E72E
:1044B8005946504628AA03F02DFA00287EF417AE74
:1044C8002A992BAA91E75946504628AA03F022FABE
:1044D80000287EF40CAE38782A992BAA99E745462D
:1044E80090463A460C464F46914601333444072BD2
:1044F800CDE92934C8F80090C8F8046000F35D815C
:1045080008F10808FFF798BA0799099828AA03F04C
:1045180001FA00287EF4EBAD22992A9C0DF1AC0833
:10452800FFF78CBB0799099828AA03F0F3F900282C
:104538007EF4DDAD2A9C0DF1AC08FFF774BA59463C
:10454800504628AA03F0E6F900287EF4D0AD387862
:104558002A992BAA064463E708990C9B0191032129
:10456800009126A9049123A9039122A95A460998E2
:10457800029100F085FB03780546302B00F0C081DE
:10458800229B089AB94613440F9FEC1858460022FC
:1045980000230C99FCF7ECFA10B12346FFF7CFBBC8
:1045A800269BA342BFF4CBAB30215A1C269219702C
:1045B800269B9C42F9D8FFF7C2BB0799099828AAFD
:1045C80003F0A8F900287EF492AD229B2A9C0DF1F5
:1045D800AC08FFF74CBA229A002A109240F3B9812E
:1045E800089909F001030B4340F040816626109BAF
:1045F8000C9319F4806F3FF4BAAE19990B78FF2B1E
:1046080000F0D6810024109A204604E001300131E0
:10461800FF2B00F06481934280F26181D21A4B78BB
:10462800002BF3D10B780134F2E7DDE92921FFF7FC
:1046380064B9089B9DF883200E9406930C93089008
:104648000F9013901090FEF73EBE00230893FEF7DC
:104658008ABC129B169A9A18109B0C92002B40F356
:104668005D816726C5E70799099828AA03F052F9DA
:1046780000283EF4E8ADFEF740BD26F0200306937F
:104688002D22DDE914349B4604F100431D920C935E
:10469800BAE50799099828AA03F03CF900287EF49E
:1046A80026AD229D129B2A9C0DF1AC085D1BFFF7DD
:1046B800F6B94E42103180F2818141461024A84655
:1046C800DFF84090DDF824B0079D04E00831103E83
:1046D800102E40F3998001331032072BC1E9009462
:1046E800CDE92932F2DD2946584628AA03F012F905
:1046F80000287EF4FCACDDE929322BA9E7E7299BE9
:10470800FFF762B91C8E0008079B5B6EDD0707D4B4
:10471800079B9B899C0503D4079B986D01F07AFE43
:104728004FF0FF330B93FEF7F1BC089BEC182DE715
:104738000221009108995A464C1C26A9049123A9E4
:10474800039122A90C9B09980194029100F098FA10
:104758000546B9462C440F9F18E7129B26930C9BDD
:104768001BF8012CD97B5B468A4209D1302003F81B
:10477800010C269B5A1E269213F8012C9142F6D062
:10478800392A0BBF0C9A0132927AD2B203F8012C63
:10479800B3E5299ADFF83492FEF7DABF30238DF8B3
:1047A8008430782314E50998591C01F0A5FE0546C4
:1047B800002800F0F6800D9015E50799099828AAB9
:1047C80003F0A8F800287EF492AC2A9C0DF1AC08FE
:1047D800FFF732B9089B002B08BF0123089347F461
:1047E80080730F93159B002BC0F2A980DDF850B0A1
:1047F8001D900C930D90FFF787BA0623089326F0B7
:1048080020030693FFF76BBA4546884601333244C6
:10481800072BCDE92932C8F80090C8F804607FF763
:1048280022AA0799099828AA03F074F800287EF4A8
:104838005EACDDE929320DF1AC0838E422AA58460D
:104848000C9902F067FF00224FF07F53FBF728FF17
:1048580002460B46CDE9102300220023FCF788F915
:1048680008B1012322935A4B0C93EAE4169B66265F
:10487800D31819440C91BCE606F10F020121D2B2FB
:10488800FFF772BA672672E500295FD130228DF8EA
:1048980092200DF19302303302F8013B24ABD31A76
:1048A8001A93FFF7A1BA109B0C9357E5159B0320A9
:1048B800002BB8BF2D224FF00003A8BF9DF883201E
:1048C80019460D93434D444BB8BF8DF8832027F00C
:1048D80080070690FEF7EFBC00230D93D0E61991F0
:1048E800109213900F940F9A139B1C9913440C9ACF
:1048F80001FB03230C9323EAE3730693FFF78BBAB8
:104908005846002200230C99FCF732F900287FF45E
:1049180037AE089BC3F10103229332E6C3F10103CA
:104928001A4422EAE27367260C92069323E5299833
:10493800ADE519F0010F3FF462AAFFF75CBA0D90DC
:104948009EE6299BDFF88490FFF751BB0DF1920298
:10495800A1E7089A09F0010959EA020304D10123E1
:10496800662606930C9306E5169B662601331A44C1
:1049780022EAE2730C920693FDE4DFF85090FFF709
:10498800BBBB299BDFF84490AFE50E9B9AF801600A
:10499800924653F8042B0E9342EAE2730893FEF70B
:1049A800E0BA079A938943F040039381FEF7A5BBC9
:1049B80000230F93139396E7089CCAE6DFF80C9040
:1049C80024E702231A93FFF70FBA00BF1C8E0008D2
:1049D800D88D0008D08D0008D48D0008F0B54FF4AC
:1049E800806C1546002406461F46ADF26C4D1AAB86
:1049F800009304938B8916A823F00203ADF80C30BA
:104A08004B6E06941993CB890C46ADF80E30CB69E2
:104A1800CDF808C007934B6ACDF814C0099301F08C
:104A2800F3FC2A463B4669463046FEF72BFA051E3C
:104A380007DB6946304601F01BF9002818BF4FF024
:104A4800FF35BDF80C305B0603D5A38943F040035E
:104A5800A381169801F0DAFC28460DF26C4DF0BDE2
:104A680038B5334B05461B680C460BB19A6B12B32D
:104A7800B4F90C3018079AB225D5216900292DD030
:104A880012F0010007D000256069A5604042A061CE
:104A980039B1002038BD950758BF6069A06000296A
:104AA800F7D1120658BF0846F4D543F040034FF03B
:104AB800FF30A38138BD184601F00EF9B4F90C3067
:104AC80018079AB2D9D4D1062AD5520714D4216925
:104AD80043F00803A3819AB20029D1D102F42070CF
:104AE800B0F5007FCCD02146284601F095FCB4F9FA
:104AF8000C3021699AB2C3E7216B51B104F140022D
:104B0800914204D0284601F0DFF9B4F90C300022B4
:104B180022630022216923F02403C4E90012D7E7A5
:104B2800092243F040032A604FF0FF30A38138BDCB
:104B38000C000020024B13B1024800F005B8704782
:104B480000000000055E0008002301461A461846CA
:104B580003F00EBE2DE9F04F03690C6985B0A3423E
:104B6800C0F28980013C01F11405A30000F114088A
:104B7800019355F8243058F8242001338A469A4284
:104B880008EB84018146B2FBF3F605EB840702913A
:104B98003AD30021AE4640460A46A34603955EF83E
:104BA800045B0468ABB206FB03132D0C190C06FB5F
:104BB80005119BB2D21A1FFA84FC94448AB2C2EB44
:104BC800144202EB2C421FFA8CFC4CEA0243774554
:104BD80040F8043B4FEA11414FEA2242DFD2019BE1
:104BE8005C4658F80330039D73B9029B043B984513
:104BF80004D307E0984504F1FF3403D253F804299D
:104C0800002AF7D0C9F810405146484602F06CFA1D
:104C180000282CDB40460023013655F8041BD0F849
:104C280000C08AB29A1A1FFA8CFE0B0C7244C3EBAE
:104C38001C4303EB224392B242EA0342AF4240F8DC
:104C4800042B4FEA2343E8D258F8242008EB8403C6
:104C58006AB9043B984504D307E0984504F1FF344A
:104C680003D253F80429002AF7D0C9F81040304677
:104C780005B0BDE8F08F002005B0BDE8F08F00BF9B
:104C88002DE9F04F90469946016C99B00446CDE95C
:104C98000489259D41B10123426C93408B604A6091
:104CA80001F0CCFF00232364B9F1000AB4BF01234B
:104CB80000232B60764BBCBF2AF0004ACDF814A025
:104CC80033EA0A0300F0AA80DDE9042310461946F6
:104CD80000220023CDE90A01FBF74AFF074670B11D
:104CE8000123249A1360269B002B00F0E682694872
:104CF8001860431E0393039819B0BDE8F08F16ABF4
:104D0800019317AB00932046DDE90A2302F0B2FABB
:104D18005FEA1A56054640F09780DDE916763E446C
:104D280006F23240202840F3B783C0F140000AFA67
:104D380000FA06F2124028FA00F04AEA0000FBF7EF
:104D480035FC0123013E0F93A1F1F8710022524B6B
:104D5800FBF7EEFA48A3D3E90023FBF7A1FC48A32D
:104D6800D3E90023FBF7E6FA804630468946FBF78D
:104D78002DFC45A3D3E90023FBF792FC02460B4622
:104D880040464946FBF7D6FA80468946FCF7C8F9FB
:104D980000228346002340464946FBF7F3FE0028DD
:104DA80040F07E82BBF1160F00F26D82DDE90A0148
:104DB8003A4B03EBCB03D3E90023FBF7E3FE0028D0
:104DC80072D00023BE1B0E93731E0BF1FF3B06939C
:104DD80000F1608200230993BBF1000F6BDA099B95
:104DE800CDF81CB0A3EB0B030993CBF100030D9393
:104DF800229B4FF0000B092B66D8052B40F34A8302
:104E08000026043B2293229B023B032B00F26C8674
:104E1800DFE813F061045E045504380442F20F73AE
:104E2800249ACAF3130A13605AEA08031AD1269B74
:104E3800002B00F068861A4B03930833269A0398D0
:104E4800136019B0BDE8F08FDDE90A12C2F313034D
:104E5800084643F07F510F97A6F2FF36169F41F49C
:104E6800401173E7269B002B40F0EF830D4B039313
:104E780041E700BFAFF3008061436F63A787D23F6C
:104E8800B3C8608B288AC63FFB799F501344D33F31
:104E98000000F07F098E00080000F83F788F0008B6
:104EA800308E00082C8E0008BE1B731E069300F17E
:104EB8008A840E900990069B5B44CDE9063B00234B
:104EC8000D93229B092B98D9002322934FF0FF338F
:104ED8000126089300230C9623930021089B616404
:104EE8001293204601F084FE0390002800F0048607
:104EF800039B2364089B0E2B00F21481002E00F004
:104F080011810799002940F36084AF4B01F00F022B
:104F180003EBC2030A46D3E900674FEA2118D1051B
:104F280040F11784DDE90A01A84B4FF0030AD3E9E1
:104F38000823FBF7DFFCCDE9100108F00F08B8F1F2
:104F4800000F13D0DFF8849218F0010F09D0D9E9C7
:104F5800002330463946FBF7A3FB06460F460AF105
:104F6800010A5FEA680809F10809EDD1DDE91001D5
:104F780032463B46FBF7BEFC804689460E9B43B152
:104F8800002240464946924BFBF7FCFD002840F0C2
:104F980035855046FBF71AFB42464B46FBF780FB2C
:104FA8008C4B0022FBF7C6F9A1F15073CDE9100133
:104FB8001193089B002B00F09780079B1493089B84
:104FC80013930C9B002B00F0A984139A7E4B0020AE
:104FD80003EBC20353E902237F49FBF78BFCDDE9AE
:104FE8001023FBF7A5F9CDE9100149464046FCF727
:104FF80097F80746FBF7EAFA02460B464046494649
:10500800FBF796F9DDE91023039E303706F8017B9C
:1050180080468946FBF7B6FD002840F02E85CDF87E
:1050280054B00027DDE910AB1095139D13942AE0C6
:105038000137AF4280F22E85504659460022674B11
:10504800FBF72EFB0022654B82468B4640464946BD
:10505800FBF726FB89468046FCF762F80446FBF717
:10506800B5FA02460B4640464946FBF761F930342B
:1050780052465B4606F8014B80468946FBF782FD9F
:10508800002840F0F88442464B4600205049FBF780
:105098004FF952465B46FBF775FD0028C8D0DDE99D
:1050A8001343109D039A079302E0964200F0CD84C3
:1050B800B24616F8013D392BF7D00133DBB2337015
:1050C800079B01330793C8E15046FBF77FFA424636
:1050D8004B46FBF7E5FA3F4B0022FBF72BF9A1F112
:1050E8005073CDE9100111934046494600223C4BCC
:1050F800FBF71EF9DDE910894B46424606460F4686
:10510800FBF75EFD8146002840F0AF84DDE9100121
:10511800024601F1004330463946FBF733FD0028CB
:1051280040F04883179B002BC0F28C80079A0E2A08
:1051380000F38880244B03EBC203D3E900AB239B25
:10514800002B1BDA089B002B18DC40F0318300226F
:10515800234B50465946FBF7A3FA02460B46DDE9B6
:105168000A01FBF719FDDDF820904E46002800F0F3
:10517800CA82239BDDF80C80DF43CCE25246DDE98E
:105188000A785B4638464146FBF7B4FBFBF7C8FF95
:1051980081460990FBF71AFA52465B46FBF780FAFC
:1051A800039E0B46024641463846FBF7C1F809F113
:1051B800300306F8013B089B012B00F05F8306943F
:1051C80001271C4604952AE0788F0008508F0008B4
:1051D8000000F03F00001C400000E03F00002440B9
:1051E8000000144052465B4640464946FBF782FBA6
:1051F800FBF796FF0546FBF7E9F952465B46FBF7D6
:105208004FFA01370B46024649464046FBF790F8ED
:1052180005F13003A74206F8013B00F02C83002279
:10522800AB4BFBF73DFA0022002380468946FBF78B
:105238009FFC0028D6D0049D069C079BB2460133EC
:1052480007930AE10C9A002A3DD0229A012A40F3DA
:105258009F82089B03F1FF380D9B4345C0F2708283
:10526800A3EB0808089B002BC0F24083069A1A4457
:105278000692099A17461A4409920121204601F01C
:1052880085FD064623E00123BE1B0E93731E06937D
:105298007FF5A0ADC6F101030993002306939BE5B2
:1052A8005846FBF793F942464B46FBF761FC00284A
:1052B8007FF478AD0BF1FF3B74E5864B03930398BD
:1052C80019B0BDE8F08FDDF83480099F0C9E002FDF
:1052D8000CDD069900290B4608DDB942A8BF3B46FC
:1052E800099AFF1AD21ACB1A099206930D9BE3B1B9
:1052F8000C9B002B00F06082B8F1000F10DD3146E6
:105308004246204601F01EFE06462A463146204601
:1053180001F06AFD0346294620461D4601F08EFC31
:105328000D9BB3EB080240F0DB820121204601F01F
:105338002DFDBBF1000F814600F3B380229B012BAA
:1053480040F388814FF0000A0120BBF1000F40F0C4
:10535800B480069A104410F01F0000F09280C0F14B
:105368002003042B40F3D383099BC0F11C000344A2
:105378000244099307440692099B002B05DD294640
:105388001A46204601F03AFE0546069B002B05DD2D
:1053980049461A46204601F031FE81460E9B002BF5
:1053A80040F03881089B002B40F31E810C9B002B9A
:1053B80040F09F80079B013307930127DDF80C809D
:1053C800DDF820A007E0294600230A22204601F044
:1053D8003FFC0546013749462846FFF7BBFB5745C2
:1053E80000F1300308F8013BEDDB089A0027002A9A
:1053F800CCBF93464FF0010B039A934429460122F0
:105408002046049301F0FAFD4946054601F06CFE7A
:10541800002840F3AB811BF8013C039A0BF1FF3BDA
:1054280004E05A4500F0AD811BF8013D392B0BF122
:10543800010AF6D001338BF800304946204601F0C6
:10544800FDFB56B12FB1B74203D03946204601F0D3
:10545800F5FB3146204601F0F1FB2946204601F0D4
:10546800EDFB0023079A8AF80030249B1A60269BDC
:10547800002B3FF440AC0398C3F800A019B0BDE876
:10548800F08F1C20099B074403440993069B03449F
:10549800069371E70126B6E4C0F1200008FA00F08F
:1054A8004DE401465A46204601F04CFD229B8146B8
:1054B800012B40F3B6814FF0000AD9F8103009EB00
:1054C8008303186901F016FCC0F1200041E700BF12
:1054D80000002440088E0008314600230A22204696
:1054E80001F0B6FB129B0646002B40F3E982CDE99A
:1054F8000783002F00F31D81BAF1000F40F0D98116
:10550800B046049B089903F00102039B0A921F46C8
:10551800013B1944229B08911343099349462846A5
:10552800FFF718FB31468346284601F0DDFD424669
:1055380049468246204601F0F7FDC26801460BF154
:105548003003002A43D104902846069301F0CCFD8D
:10555800024604992046049201F070FB049A069BC7
:105568001AB90999002900F09B82BAF1000FC0F21C
:10557800648122994AEA010A0A9951EA0A0100F06B
:105588005C81002A00F3B681089A07F1010A974264
:10559800D3463B7000F0B481294600230A222046F6
:1055A80001F056FB4645054631464FF000034FF0E3
:1055B8000A02204612D001F04BFB41460646002362
:1055C8000A22204601F044FB57468046A6E72046BB
:1055D800049301F033FB0122049BC6E701F038FB7A
:1055E80057460646804699E7229B022B7ADC0C9B9D
:1055F800002B7FF47EAF079B49460133284607936B
:10560800FFF7A8FADDF80CB000F1300300270BF81B
:10561800013BF3E64946284601F066FD0028BFF63F
:10562800C1AE294600230A22204601F011FB079B40
:10563800054603F1FF380C9B002B7FF44DAF129BFE
:10564800002B40F334820893B7E6B04B039303333F
:10565800FFF7F4BBDDE9041200297FF473AEC2F34F
:105668001303002B7FF46EAEA94B1340002B00F000
:105678000082099B4FF0010A01330993069B01330D
:10568800069361E601230C93239B079A1344129314
:105698000133012B1F46B8BF012708930021172F9C
:1056A80061647FF71EAC012204235B0003F1140040
:1056B800B842114602F10102F7D9616411E40123ED
:1056C8000C93239B002B4CDD1F4612930893E5E7B0
:1056D80000230C93D8E700230C93F2E7129BCDF834
:1056E8001C800893089B002B7FF443AD4946052294
:1056F800204601F0ADFA81462846494601F0F4FCFF
:1057080000287FF736AD31230398079F804600F8BD
:10571800013B013703904946204601F08FFA7B1C74
:10572800DDF80CA00793CDF80C80002E7FF491AE25
:1057380093E631463A46204601F060FC0646DBE631
:105748000D9BCDF83480A8EB03039B444FF0000871
:1057580088E5DDE90A234FF0020ACDE91023FFF7B7
:10576800EEBB012323930893FFF7B7BB03D1049B38
:10577800D8073FF550AEDA461BF8013D302BFAD07A
:105788005BE6079B039A013307933123137054E6B2
:105798000F9A002A00F0288103F23343069ADDF8B5
:1057A80034801A440692099A17461A44099264E505
:1057B8004FF000094E46DCE4294620460D9A01F0D8
:1057C800C1FB0546B1E50E9064E500F01181DDE905
:1057D8000A01079A4F4B564206F00F0203EBC20329
:1057E800D3E90023FAF75CFF36118046894600F0BA
:1057F800708100234FF0020A474FF20706D5D7E918
:105808000023FAF74DFF01230AF1010A761007F188
:105818000807F2D1002B3FF4B1AB80468946FFF769
:10582800ADBB049B002B7FF446AEDDE90412C2F346
:105838001303002B3FF418AF3DE6002A12DD29467A
:1058480001222046049301F0D9FB4946054601F0A0
:105858004BFC0028049B40F31781392B00F0FB8098
:105868000BF13103BA46079A37460132464607928A
:105878000AF8013BE1E50995069C049D02460B46A2
:10588800FAF758FD52465B4680468946FBF798F979
:1058980060B952465B4640464946FBF769F900281D
:1058A8003FF4CBAC099BD9077FF5C7AC039AFFF748
:1058B800FFBB2046716801F09BF90746002800F0FD
:1058C8000C81336906F10C0102339A000C30FBF7A6
:1058D8009BFB39460122204601F090FB804610E6EA
:1058E8002946204601F02EFB05461EE5DDE9082382
:1058F8009F1AC2E4392B00F0AE80BA460133B2E7F2
:10590800079A374601324646079277E52C8E0008FB
:105918000000F07F788F0008508F0008DDF84CA059
:105928008349DDE9102301EBCA0151E90201FAF7C5
:10593800B7FECDE9100149464046FBF7F1FB0646A4
:10594800FAF744FE0B46024649464046FAF7F0FC91
:105958005346039F3036012B8046894607F8016B72
:1059680000F0AC80139E039B1E440022714B4046FE
:105978004946FAF795FE89468046FBF7D1FB8246F1
:10598800FAF724FE02460B4640464946FAF7D0FC91
:105998000AF1300A07F801ABB74280468946E4D1DC
:1059A800DDE910010022644BFAF7C4FC42464B467D
:1059B800FBF7E8F8002862D1DDE9102300205E49F2
:1059C800FAF7B6FC42464B46FBF7FAF800283FF4D4
:1059D800A9AB16F8013CB246302B06F1FF36F8D0D9
:1059E800149B0133079338E5169BC3F13603D5E6BC
:1059F8004FF0020ADDE90A89FFF7C0BA089B002BBD
:105A08003FF462AB129B002B7FF78CAB1393079B81
:105A18000022013B404649461493464BFAF740FEA4
:105A2800804689460AF10100FAF7D0FD42464B4606
:105A3800FAF736FE414B0022FAF77CFCA1F15073CD
:105A4800CDE910011193FFF7BCBA079B0133079307
:105A58003123FFF734BB079BBB4601330793392338
:105A680037460BF8013B4646D7E44FF000094E464F
:105A780049E69A4668E4109D139CB246B0E7149B29
:105A8800039A0793FFF714BB7FF4ECAEDA077FF5B0
:105A9800E9AEE2E6DDF854B0109D139CFFF742BB77
:105AA800392BD8D0BAF1000F3FF7DAAEDAE6229BED
:105AB800022B3FF713AECDF81C809CE53E466FE7FE
:105AC800229B022B3FF70AAE129BCDF81C8008934D
